:03000000020026D5
:0C002600787FE4F6D8FD75810D02006DB6
:1001D30068656C6C6F20776F726C642100C0F9A442
:0701E300B0999282F88090B0
:0C023400020C000A020A0014020800007C
:0A018F00F583E493F5807F017E0004
:10019900E4FDFCC3ED9FEC9E5015E4FBFA0BBB009C
:0F01A900010AEB647C4A70F50DBD00010C80E487
:0101B8002224
:040241007F23DFFE3A
:010245002296
:10021300D2AF758901D2A9758C4CE4F58AD28CC210
:020223008D222A
:1001EA00758920759850E4F587758BFD758DFDD25C
:0601FA008ED2AFD2AC2250
:0F0225008F99750800750901E509450870FA22DF
:100200001200B2FF600C120225740129F9E43AFAD7
:0302100080EE225B
:100003001201EA12015A2092FA1202417BFF7A018D
:0D00130079D3120200750C00750D1480E603
:10015A00D291AE0CAF0D7C007D0A1200CB74E02D5B
:10016A00F58274013C12018FC291D290AE0CAF0D90
:10017A007C007D0A1200CB74E02FF58274013E12D6
:05018A00018FC290226C
:10012000758C4CE4F58AC3E50B9414E50A940050F1
:1001300009050BE50B7022050A22E4F50AF50BD33D
:10014000E50D9400E50C94004009E50D150D7009CE
:0A015000150C22750C00750D0A2233
:030023000201B91E
:1001B90030980BC2988599807508007509013099A6
:0A01C90008C299750800750900329C
:10003200020003E493A3F8E493A34003F68001F2E1
:1000420008DFF48029E493A3F85407240CC8C333CF
:10005200C4540F4420C8834004F456800146F6DF9E
:10006200E4800B0102040810204080900234E47EF8
:10007200019360BCA3FF543F30E509541FFEE49393
:10008200A360010ECF54C025E060A840B8E493A35A
:10009200FAE493A3F8E493A3C8C582C8CAC583CA85
:1000A200F0A3C8C582C8CAC583CADFE9DEE780BE3D
:0102400000BD
:1000B200BB010689828A83E0225002E722BBFE024C
:0900C200E32289828A83E493227F
:1000CB00BC000BBE0029EF8DF084FFADF022E4CC19
:1000DB00F875F008EF2FFFEE33FEEC33FCEE9DECE2
:1000EB00984005FCEE9DFE0FD5F0E9E4CEFD22ED28
:1000FB00F8F5F0EE8420D21CFEADF075F008EF2F72
:10010B00FFED33FD4007985006D5F0F222C398FD62
:05011B000FD5F0EA22FF
:00000001FF
