:03000000020026D5
:0C002600787FE4F6D8FD75810D02006DB6
:0A020700C0F9A4B0999282F880902B
:0C01FA00020C000A020A001402080000B7
:0A018100F583E493F5807F017E0012
:10018B00E4FDFCC3ED9FEC9E5015E4FBFA0BBB00AA
:0F019B00010AEB647C4A70F50DBD00010C80E495
:0101AA002232
:10000E00D2AF758901D2A9758C4CE4F58AD28CC217
:02001E008D2231
:1001E400758920759850E4F587758BFD758DFDD262
:0601F4008ED2AFD2AC2256
:1001C9001201E412014CE5096401450870F5C2AC5D
:0B01D900F508F509850D99C29980E832
:10014C00D291AE0CAF0D7C007D0A1200B274072D5B
:10015C00F58274023C120181C291D290AE0CAF0DAB
:10016C007C007D0A1200B274072FF58274023E12D5
:05017C000181C2902288
:03000B00020107E8
:10010700C0E0C0D0758C4C758A00C3E50B9414E52C
:100117000A9400500A050BE50B7025050A80217526
:100127000A00750B00D3E50D9400E50C9400400A16
:10013700E50D150D700A150C8006750C00750D0A76
:05014700D0D0D0E03231
:030023000201AB2C
:1001AB00C0D075D000C007AF99750C008F0D850DB1
:0E01BB0080C298750800750901D007D0D032B7
:100032000201C9E493A3F8E493A34003F68001F21A
:1000420008DFF48029E493A3F85407240CC8C333CF
:10005200C4540F4420C8834004F456800146F6DF9E
:10006200E4800B01020408102040809001FAE47E33
:10007200019360BCA3FF543F30E509541FFEE49393
:10008200A360010ECF54C025E060A840B8E493A35A
:10009200FAE493A3F8E493A3C8C582C8CAC583CA85
:1000A200F0A3C8C582C8CAC583CADFE9DEE780BE3D
:0102060000F7
:1000B200BC000BBE0029EF8DF084FFADF022E4CC32
:1000C200F875F008EF2FFFEE33FEEC33FCEE9DECFB
:1000D200984005FCEE9DFE0FD5F0E9E4CEFD22ED41
:1000E200F8F5F0EE8420D21CFEADF075F008EF2F8B
:1000F200FFED33FD4007985006D5F0F222C398FD7C
:050102000FD5F0EA2218
:00000001FF
