:03000000020026D5
:0C002600787FE4F6D8FD75810D02006DB6
:1001D00068656C6C6F20776F726C642100C0F9A445
:0701E000B0999282F88090B3
:0C023100020C000A020A0014020800007F
:0A018F00F583E493F5807F017E0004
:10019900E4FDFCC3ED9FEC9E5015E4FBFA0BBB009C
:0F01A900010AEB647C4A70F50DBD00010C80E487
:0101B8002224
:10021000D2AF758901D2A9758C4CE4F58AD28CC213
:020220008D222D
:1001E700758920759850E4F587758BFD758DFDD25F
:0601F7008ED2AFD2AC2253
:0F0222008F99750800750901E509450870FA22E2
:1001FD001200B2FF600C120222740129F9E43AFADE
:03020D0080EE225E
:1001B9001201E712015A2092FA2092F77BFF7A0185
:0701C90079D01201FD80F264
:10015A00D291AE0CAF0D7C007D0A1200CB74DD2D5E
:10016A00F58274013C12018FC291D290AE0CAF0D90
:10017A007C007D0A1200CB74DD2FF58274013E12D9
:05018A00018FC290226C
:10012000758C4CE4F58AC3E50B9414E50A940050F1
:1001300009050BE50B7022050A22E4F50AF50BD33D
:10014000E50D9400E50C94004009E50D150D7009CE
:0A015000150C22750C00750D0A2233
:03002300020003D5
:1000030030980BC29885998075080075090130995D
:0A00130008C2997508007509003253
:100032000201B9E493A3F8E493A34003F68001F22A
:1000420008DFF48029E493A3F85407240CC8C333CF
:10005200C4540F4420C8834004F456800146F6DF9E
:10006200E4800B0102040810204080900231E47EFB
:10007200019360BCA3FF543F30E509541FFEE49393
:10008200A360010ECF54C025E060A840B8E493A35A
:10009200FAE493A3F8E493A3C8C582C8CAC583CA85
:1000A200F0A3C8C582C8CAC583CADFE9DEE780BE3D
:01023D0000C0
:1000B200BB010689828A83E0225002E722BBFE024C
:0900C200E32289828A83E493227F
:1000CB00BC000BBE0029EF8DF084FFADF022E4CC19
:1000DB00F875F008EF2FFFEE33FEEC33FCEE9DECE2
:1000EB00984005FCEE9DFE0FD5F0E9E4CEFD22ED28
:1000FB00F8F5F0EE8420D21CFEADF075F008EF2F72
:10010B00FFED33FD4007985006D5F0F222C398FD62
:05011B000FD5F0EA22FF
:00000001FF
