:030000000200EA11
:0C00EA00787FE4F6D8FD75810B02005809
:0A00F600C0F9A4B0999282F880903E
:1000CD00E4FFFEE4FCFD0DBD00010CBC54F8BDEADF
:0C00DD00F50FBF00010EEF64014E70E74C
:0100E90022F4
:0600AA00F583E493F5B0BC
:1000B000E4FFFEE4FCFD0DBD00010CED64D94C70C5
:0C00C000F50FBF00010EEF64014E70E769
:0100CC002211
:100058007B3C7A007C007D0AAF03AE021200038E5F
:10006800088F097C007D0AAF03AE021200038C0AD8
:100078008D0BD291C29074F6250BF5827400350A67
:100088001200AAC291D29074F62509F5827400353F
:10009800081200AA1200CDEB1B70011AEB4A70B4CB
:0200A80080AE28
:10000300BC000BBE0029EF8DF084FFADF022E4CCE1
:10001300F875F008EF2FFFEE33FEEC33FCEE9DECAA
:10002300984005FCEE9DFE0FD5F0E9E4CEFD22EDF0
:10003300F8F5F0EE8420D21CFEADF075F008EF2F3A
:10004300FFED33FD4007985006D5F0F222C398FD2B
:050053000FD5F0EA22C8
:00000001FF
