:030000000200F308
:0C00F300787FE4F6D8FD75810D02000353
:0A00FF00C0F9A4B0999282F8809035
:1000B900E4FFFEE4FCFD0DBD00010CBC54F8BDEAF3
:0C00C900F50FBF00010EEF64014E70E760
:0100D5002208
:1000D600E4FFFEE4FCFD0DBD00010CBC1FF8BD40B5
:0C00E600F50FBF00010EEF64014E70E743
:0100F20022EB
:100003007B3C7A0075B0FF7C007D0AAF03AE021221
:1000130000648E0A8F0B7C007D0AAF03AE021200D0
:10002300648C0C8D0D74FF250DF5827400350CF571
:1000330083E493F5B0D2911200D6C29175B0FF74E8
:10004300FF250BF5827400350AF583E493F5B0D2EE
:10005300901200D6C290EB1B70011AEB4A70A58078
:010063009FFD
:10006400BC000BBE0029EF8DF084FFADF022E4CC80
:10007400F875F008EF2FFFEE33FEEC33FCEE9DEC49
:10008400984005FCEE9DFE0FD5F0E9E4CEFD22ED8F
:10009400F8F5F0EE8420D21CFEADF075F008EF2FD9
:1000A400FFED33FD4007985006D5F0F222C398FDCA
:0500B4000FD5F0EA2267
:00000001FF
