:030000000202CF2A
:0C02CF00787FE4F6D8FD75813502031637
:0A065400C0F9A4B0999282F88090DA
:10053C000232000F0234000F021E000F0222000FC5
:10054C00022C0007022E000A0228000302240003DA
:10055C0002200000022A0001021200010210000019
:10056C00020C000002080000020A00000218000041
:08057C00021400000226000138
:0806670012063812043180FB79
:0F063800D2AFD288D2A8D28AD2AAD2A902061BE8
:03000B0002058566
:10058500C0E0C0F0C083C082C0D075D000C000C03C
:1005950001C002C003C004C005C006C007758C4C6D
:1005A500758A0012002612019012048FD007D0061A
:1005B500D005D004D003D002D001D000D0D0D08255
:0705C500D083D0F0D0E0323A
:1003C900EE7064EF146021146031146043240370EB
:1003D90056E4F520F521F52675270185342E853556
:1003E9002F85322C85332D22752C00752D63752EA2
:1003F90000752F63E4F520F5218028752C00752DF3
:1004090063752E00752F63752000752102E4801332
:10041900752C00752D63752E00752F637520007579
:080429002104E4F526F5272269
:10043100AE2EAF2F7C007D0A1204E78F1AAE2EAFCD
:100441002F7C007D0A1204E78D1BAE2CAF2D7C00A2
:100451007D0A1204E78F1CAE2CAF2D7C007D0A12A1
:1004610004E78D1D759001E51A1205CC759002E522
:100471001B1205CC759004E51C1205CC759008E59E
:0E0481001D90065493F5807F017E000205D683
:10019000E52060030202CEE52114605314607C1454
:1001A000700302025614700302028A2404600302E0
:1001B00002CEE512451324FF92A1B392A3E51345A5
:1001C0001270047F0180027F00750C008F0DE51214
:1001D000451324FFB392A4E512451324FF92A6E52C
:1001E00013451270057F010202C97F000202C9E5B2
:1001F00012451324FFB392A192A385120C85130D0F
:1002000092A492A5E512451324FF92A6E513451288
:1002100070047F0180027F000202C9E512451324A9
:10022000FFB392A1E512451324FF92A3E5134512F3
:1002300070047F0180027F00750C008F0DE5124570
:100240001324FF92A4B392A6E513451270047F0114
:1002500080027F008073E512451324FFB392A1E56D
:1002600012451324FF92A3E513451270047F018009
:10027000027F00750C008F0DE512451324FFB39229
:10028000A492A685121085131122E512451324FFAE
:10029000B392A1E512451324FF92A3E51345127012
:1002A000047F0180027F00750C008F0DE51245135D
:1002B00024FFB392A4E512451324FF92A6E513454B
:0F02C0001270047F0180027F007510008F1122E1
:10048F000517E51770020516C3940AE51694004088
:10049F0046E4F516F517050FE50F7002050ED39418
:1004AF000AE50E94004005E4F50EF50FE511451031
:1004BF006007E50F1392A58009E512451324FFB3DA
:1004CF0092A5E50D450C6006E50F1392A222E512E9
:0804DF00451324FFB392A22291
:100026000531E53170020530C39414E53094005073
:100036000302018FE5274526700302018FE4F530A0
:10004600F531E52F152F7002152EE52D152D7002B1
:10005600152CE52B452A70030200F9D3E52D9400F3
:10006600E52C9400400EE50D450C7008F520F521B1
:10007600F50CF50DD3E52D9400E52C94005016E50E
:100086000D450C701085242C85252DF50C750D015C
:10009600F520752101D3E52D9400E52C9400503E02
:1000A600E50D6401450C7036F50CF50D12035BE5A4
:1000B600232525F52DE5223524F52C85222E8523AD
:1000C6002F85342285352385321E85331FE52B4542
:1000D6002A70047F0180027F00752A008F2BD3E5EA
:1000E6002F9400E52E9400400302018F852C2E8567
:1000F6002D2F22D3E52F9400E52E9400400FE51115
:1001060045107009F520752102F510F511D3E52F7C
:100116009400E52E94005016E511451070108528C0
:100126002E85292FF510751101F520752103D3E5CC
:100136002F9400E52E9400503FE5116401451070A0
:100146003712035B851E2C851F2DE52D2529F52FDE
:10015600E52C3528F52E85342285352385321E85F6
:10016600331FE4F510F511E52B452A70047F018055
:10017600027F00752A008F2BD3E52D9400E52C9481
:0A018600005006852E2C852F2D2237
:10035B00E509250BFFE508350AFE7C007D03120439
:10036B00E7EF2519F519EE3518F518D3E519940AA9
:10037B00E518940040067E007F0A8004AE18AF1982
:10038B008E188F19E52B452A600EE5192523F523C9
:10039B00E5183522F522800CE519251FF51FE51808
:1003AB00351EF51EE50925E0FFE50833FE12065E56
:0E03BB00E4F518F519F508F509F50AF50B2219
:0A05CC0090065493F5807F017E0035
:1005D600E4FDFCC3ED9FEC9E5015E4FBFA0BBB005B
:0F05E600010AEB647C4A70F50DBD00010C80E446
:0105F50022E3
:10061B00758921E4F58A758C4CC28DD28C759850F6
:0D062B00F587758BFD758DFDD28ED2AC224A
:09065E008F997514007515012235
:03000300020016E2
:0D001600C0E00509E50970020508D0E032E0
:030013000206479B
:0D064700C0E0050BE50B7002050AD0E032A3
:030023000205F6DD
:1005F600C0E0C0D075D000C006C007309809C298C8
:10060600AF997E001203C9309902C299D007D0066D
:05061600D0D0D0E0325D
:03000600020000F5
:1002DB00020667E493A3F8E493A34003F68001F2CC
:1002EB0008DFF48029E493A3F85407240CC8C33324
:1002FB00C4540F4420C8834004F456800146F6DFF3
:10030B00E4800B010204081020408090053CE47E41
:10031B00019360BCA3FF543F30E509541FFEE493E7
:10032B00A360010ECF54C025E060A840B8E493A3AE
:10033B00FAE493A3F8E493A3C8C582C8CAC583CAD9
:10034B00F0A3C8C582C8CAC583CADFE9DEE780BE91
:010584000076
:1004E700BC000BBE0029EF8DF084FFADF022E4CCF9
:1004F700F875F008EF2FFFEE33FEEC33FCEE9DECC2
:10050700984005FCEE9DFE0FD5F0E9E4CEFD22ED07
:10051700F8F5F0EE8420D21CFEADF075F008EF2F51
:10052700FFED33FD4007985006D5F0F222C398FD42
:050537000FD5F0EA22DF
:00000001FF
