:030000000200D625
:0C00D600787FE4F6D8FD75812102011D41
:0A037B00C0F9A4B0999282F88090B6
:10034C00021E000F0220000A0218000F021A000AF7
:10035C0002160000020E0001020C00000208000050
:080003001203851201D080FBFD
:07038500D2AFD2A902036D03
:03000B000202DB13
:1002DB00C0E0C0F0C083C082C0D075D000C000C0E9
:1002EB0001C002C003C004C005C006C007758C4C1A
:1002FB00758A0012000E12016212022ED007D00670
:10030B00D005D004D003D002D001D000D0D0D08201
:07031B00D083D0F0D0E032E6
:1001D000AE1AAF1B7C007D0A1202868F12AE1AAFD8
:1001E0001B7C007D0A1202868D13AE18AF197C00AD
:1001F0007D0A1202868F14AE18AF197C007D0A1298
:1002000002868D15759001E512120322759002E5A4
:1002100013120322759004E514120322759008E569
:0E0220001590037B93F5807F017E0002032C76
:10000E00E51745166061D3E5199405E5189400408F
:10001E001BE50E450F24FF92A1E50F450E70047FE0
:10002E000180027F007508008F09800FE50E450FD5
:10003E0024FFB392A1850E08850F09E50E450F2406
:10004E00FFB392A3E50F450E70047F0180027F007F
:10005E00750C008F0DE50E450F24FFB392A4E50E2F
:10006E00450F24FF92A622E50F450E70047F0180F6
:10007E00027F007508008F09E50E450F24FFB3922D
:10008E00A1E50E450F24FF92A3D3E51B9405E51AB7
:10009E009400401BE50E450F24FF92A4E50F450E7C
:1000AE0070047F0180027F00750C008F0D800FE5BC
:1000BE000E450F24FFB392A4850E0C850F0DE50E91
:0800CE00450F24FFB392A622A6
:10022E000511E51170020510C3940AE51094004003
:10023E0046E4F510F511050BE50B7002050AD39493
:10024E000AE50A94004005E4F50AF50BE50D450CA8
:10025E006007E50B1392A58009E50E450F24FFB349
:10026E0092A5E50945086006E50B1392A222E50E5C
:08027E00450F24FFB392A222F8
:10016200051DE51D7002051CC39414E51C94004096
:100172005CE4F51CF51DD3E5199400E518940040E4
:100182002FE51B151B7002151AE5191519700215BA
:1001920018D3E51B9400E51A9400500DE517451697
:1001A200602B85181A85191B22851A18851B19229E
:1001B20085201A85211B851E18851F19E5174516EE
:0E01C20070047F0180027F007516008F1722E7
:0A03220090037B93F5807F017E00BD
:10032C00E4FDFCC3ED9FEC9E5015E4FBFA0BBB0007
:0F033C00010AEB647C4A70F50DBD00010C80E4F2
:01034B00228F
:0E036D00758901E4F58A758C4CC28DD28C2204
:1000E200020003E493A3F8E493A34003F68001F231
:1000F20008DFF48029E493A3F85407240CC8C3331F
:10010200C4540F4420C8834004F456800146F6DFED
:10011200E4800B010204081020408090034CE47E2E
:10012200019360BCA3FF543F30E509541FFEE493E2
:10013200A360010ECF54C025E060A840B8E493A3A9
:10014200FAE493A3F8E493A3C8C582C8CAC583CAD4
:10015200F0A3C8C582C8CAC583CADFE9DEE780BE8C
:01036C000090
:10028600BC000BBE0029EF8DF084FFADF022E4CC5C
:10029600F875F008EF2FFFEE33FEEC33FCEE9DEC25
:1002A600984005FCEE9DFE0FD5F0E9E4CEFD22ED6B
:1002B600F8F5F0EE8420D21CFEADF075F008EF2FB5
:1002C600FFED33FD4007985006D5F0F222C398FDA6
:0502D6000FD5F0EA2243
:00000001FF
