:030000000202C831
:0C02C800787FE4F6D8FD75813302030F47
:0A001600C0F9A4B0999282F880901E
:100654000230000F0232000F022A0007022C000AA7
:10066400022600030224000302220003021E0003E8
:10067400021C000002280001021200010210000006
:10068400020C000002080000020A0000021400002C
:04069400022000013F
:08071D0012070512044680FBDF
:0F070500D2AFD288D2A8D28AD2AAD2A90206E84D
:03000B0002060DDD
:10060D00C0E0C0F0C083C082C0D075D000C000C0B3
:10061D0001C002C003C004C005C006C007758C4CE4
:10062D00758A00120026120189120560D007D006C6
:10063D00D005D004D003D002D001D000D0D0D082CC
:07064D00D083D0F0D0E032B1
:1003DE00EE7064EF146021146031146043240370D6
:1003EE0056E4F51CF51DF52075210185322C85335B
:1003FE002D85302A85312B22752A00752B63752C9D
:10040E0000752D63E4F51CF51D8028752A00752BEB
:10041E0063752C00752D63751C00751D02E4801329
:10042E00752A00752B63752C00752D63751C007570
:08043E001D04E4F520F5212264
:10044600AE2CAF2D7C007D0A1205B88F18AE2CAFEE
:100456002D7C007D0A1205B88D19AE2AAF2B7C00C3
:100466007D0A1205B88F1AAE2AAF2B7C007D0A12C0
:1004760005B88D1B759001E518120699759002E571
:1004860019120699759004E51A120699759008E5F1
:0E0496001B90001693F5807F017E000206A3E6
:10018900E51C60030202C7E51D14605314607C146A
:10019900700302024F1470030202832404600302F5
:1001A90002C7E512451324FF92A1B392A3E51345B3
:1001B9001270047F0180027F00750C008F0DE5121B
:1001C900451324FFB392A4E512451324FF92A6E533
:1001D90013451270057F010202C27F000202C2E5C7
:1001E90012451324FFB392A192A385120C85130D16
:1001F90092A492A5E512451324FF92A6E513451290
:1002090070047F0180027F000202C2E512451324B7
:10021900FFB392A1E512451324FF92A3E5134512FA
:1002290070047F0180027F00750C008F0DE5124577
:100239001324FF92A4B392A6E513451270047F011B
:1002490080027F008073E512451324FFB392A1E574
:1002590012451324FF92A3E513451270047F018010
:10026900027F00750C008F0DE512451324FFB39230
:10027900A492A685121085131122E512451324FFB5
:10028900B392A1E512451324FF92A3E51345127019
:10029900047F0180027F00750C008F0DE512451364
:1002A90024FFB392A4E512451324FF92A6E5134552
:0F02B9001270047F0180027F007510008F1122E8
:100560000517E51770020516C3940AE516940040B6
:1005700046E4F516F517050FE50F7002050ED39446
:100580000AE50E94004005E4F50EF50FE51145105F
:100590006007E50F1392A58009E512451324FFB308
:1005A00092A5E50D450C6006E50F1392A222E51217
:0805B000451324FFB392A222BF
:10002600052FE52F7002052EC39414E52E9400507B
:1000360003020188E52145207003020188E4F52EBC
:10004600F52FE529452870030200E7D3E52B940038
:10005600E52A9400400EE50D450C7008F51CF51DCB
:10006600F50CF50DD3E52B9400E52A9400501BE51D
:100076000D450C7015120354851E2A851F2B750C11
:1000860000750D01751C00751D01D3E52B9400E567
:100096002A94005035E50D6401450C702D85302AF3
:1000A60085312B85322C85332D85241E85251F858C
:1000B6002622852723F50CF50DE529452870047FB2
:1000C6000180027F007528008F29D3E52D9400E575
:1000D6002C94004003020178852A2C852B2D0201E1
:1000E60078D3E52D9400E52C9400400FE5114510DA
:1000F6007009F51C751D02F510F511D3E52D940058
:10010600E52C9400501BE51145107015120354851B
:10011600222C85232D751000751101751C00751D87
:1001260003D3E52D9400E52C94005035E5116401C8
:100136004510702D85302A85312B85322C85332D3F
:1001460085241E85251F852622852723F510F51172
:10015600E529452870047F0180027F007528008FFD
:1001660029D3E52B9400E52A94005006852C2A8590
:100176002D2BE52D152D7002152CE52B152B700258
:03018600152A2215
:10035400E52945286038AE0AAF0B7C007D03120501
:10036400B8E5092FFFE5083EFEEF251FF51FEE3522
:100374001EF51ED3E51F940AE51E940040067E0078
:100384007F0A8004AE1EAF1F8E1E8F1F8036AE0AFA
:10039400AF0B7C007D031205B8E5092FFFE5083E8D
:1003A400FEEF2523F523EE3522F522D3E523940A27
:1003B400E522940040067E007F0A8004AE22AF232B
:1003C4008E228F23E50925E0FFE50833FE1207148A
:0A03D400E4F508F509F50AF50B221F
:0A06990090001693F5807F017E00AB
:1006A300E4FDFCC3ED9FEC9E5015E4FBFA0BBB008D
:0F06B300010AEB647C4A70F50DBD00010C80E478
:0106C2002215
:1006E800758921E4F58A758C4CC28DD28C75985029
:0D06F800F587758BFD758DFDD28ED2AC227D
:090714008F99751400751501227E
:030003000204A450
:1004A400C0E0C0D075D000C006C007E5114510609B
:1004B40006E50D450C703EE5294528601DE531240F
:1004C400FBFFE53034FFFED3E52B9FE52A9E402554
:1004D4000509E509701F0508801BE53324FBFFE5CA
:1004E4003234FFFED3E52D9FE52C9E40080509E537
:0E04F4000970020508D007D006D0D0D0E03243
:03001300020502E1
:10050200C0E0C0D075D000C006C007E5114510603C
:1005120006E50D450C703EE5294528601DE53124B0
:10052200FBFFE53034FFFED3E52B9FE52A9E4025F5
:10053200050BE50B701F050A801BE53324FBFFE565
:100542003234FFFED3E52D9FE52C9E4008050BE5D6
:0E0552000B7002050AD007D006D0D0D0E032E0
:030023000206C30F
:1006C300C0E0C0D075D000C006C007309809C298FA
:1006D300AF997E001203DE309902C299D007D0068B
:0506E300D0D0D0E03290
:03000600020000F5
:1002D40002071DE493A3F8E493A34003F68001F21C
:1002E40008DFF48029E493A3F85407240CC8C3332B
:1002F400C4540F4420C8834004F456800146F6DFFA
:10030400E4800B0102040810204080900654E47E2F
:10031400019360BCA3FF543F30E509541FFEE493EE
:10032400A360010ECF54C025E060A840B8E493A3B5
:10033400FAE493A3F8E493A3C8C582C8CAC583CAE0
:10034400F0A3C8C582C8CAC583CADFE9DEE780BE98
:010698000061
:1005B800BC000BBE0029EF8DF084FFADF022E4CC27
:1005C800F875F008EF2FFFEE33FEEC33FCEE9DECF0
:1005D800984005FCEE9DFE0FD5F0E9E4CEFD22ED36
:1005E800F8F5F0EE8420D21CFEADF075F008EF2F80
:1005F800FFED33FD4007985006D5F0F222C398FD71
:050608000FD5F0EA220D
:00000001FF
