:0300000002019169
:0C019100787FE4F6D8FD7581210201D8CA
:0A044300C0F9A4B0999282F88090ED
:10040500021E000F0220000F0218000F021A000F33
:1004150002160001020E0001020C00000208000095
:08044D0012042612021D80FBBF
:0F042600D2AFD288D2A8D28AD2AAD2A9020435E4
:03000B00020328C5
:10032800C0E0C0F0C083C082C0D075D000C000C09B
:1003380001C002C003C004C005C006C007758C4CCC
:10034800758A001200161200DE12027BD007D00652
:10035800D005D004D003D002D001D000D0D0D082B4
:07036800D083D0F0D0E03299
:10021D00AE1AAF1B7C007D0A1202D38F12AE1AAF3D
:10022D001B7C007D0A1202D38D13AE18AF197C0012
:10023D007D0A1202D38F14AE18AF197C007D0A12FD
:10024D0002D38D15759001E5121203DB759002E551
:10025D00131203DB759004E5141203DB759008E5AA
:0E026D001590044393F5807F017E000203E5A7
:10001600E51745166061D3E5199405E51894004087
:100026001BE50E450F24FF92A1E50F450E70047FD8
:100036000180027F007508008F09800FE50E450FCD
:1000460024FFB392A1850E08850F09E50E450F24FE
:10005600FFB392A3E50F450E70047F0180027F0077
:10006600750C008F0DE50E450F24FFB392A4E50E27
:10007600450F24FF92A622E50F450E70047F0180EE
:10008600027F007508008F09E50E450F24FFB39225
:10009600A1E50E450F24FF92A3D3E51B9405E51AAF
:1000A6009400401BE50E450F24FF92A4E50F450E74
:1000B60070047F0180027F00750C008F0D800FE5B4
:1000C6000E450F24FFB392A4850E0C850F0DE50E89
:0800D600450F24FFB392A6229E
:10027B000511E51170020510C3940AE510940040B6
:10028B0046E4F510F511050BE50B7002050AD39446
:10029B000AE50A94004005E4F50AF50BE50D450C5B
:1002AB006007E50B1392A58009E50E450F24FFB3FC
:1002BB0092A5E50945086006E50B1392A222E50E0F
:0802CB00450F24FFB392A222AB
:1000DE00051DE51D7002051CC39414E51C9400500B
:1000EE0003020190E4F51CF51DE51745166048D393
:1000FE00E5199400E51894004023E51915197002CE
:10010E001518D3E51B9400E51A94004009E51B155C
:10011E001B706F151A2285181A85191B22851E1839
:10012E00851F1985201A85211BE517451670047F3A
:10013E0001804A7F008046D3E51B9400E51A9400A7
:10014E004023E51B151B7002151AD3E5199400E523
:10015E001894004009E51915197027151822851AEB
:10016E0018851B1922851E18851F1985201A8521B1
:10017E001BE517451670047F0180027F007516007F
:03018E008F1722A6
:0A03DB0090044393F5807F017E003B
:1003E500E4FDFCC3ED9FEC9E5015E4FBFA0BBB004E
:0F03F500010AEB647C4A70F50DBD00010C80E439
:0104040022D5
:0E043500758901E4F58A758C4CC28DD28C223B
:0300030002036F86
:10036F00C0E0C0D075D000C002C003C004C005C03B
:10037F0006C0077F647E001203E57405251BF51B7D
:10038F00E4351AF51AD007D006D005D004D003D023
:06039F0002D0D0D0E032D4
:030013000203A540
:1003A500C0E0C0D075D000C002C003C004C005C005
:1003B50006C0077F647E001203E574052519F5194B
:1003C500E43518F518D007D006D005D004D003D0F1
:0603D50002D0D0D0E0329E
:10019D0002044DE493A3F8E493A34003F68001F227
:1001AD0008DFF48029E493A3F85407240CC8C33363
:1001BD00C4540F4420C8834004F456800146F6DF32
:1001CD00E4800B0102040810204080900405E47EB9
:1001DD00019360BCA3FF543F30E509541FFEE49327
:1001ED00A360010ECF54C025E060A840B8E493A3EE
:1001FD00FAE493A3F8E493A3C8C582C8CAC583CA19
:10020D00F0A3C8C582C8CAC583CADFE9DEE780BED0
:0104250000D6
:1002D300BC000BBE0029EF8DF084FFADF022E4CC0F
:1002E300F875F008EF2FFFEE33FEEC33FCEE9DECD8
:1002F300984005FCEE9DFE0FD5F0E9E4CEFD22ED1E
:10030300F8F5F0EE8420D21CFEADF075F008EF2F67
:10031300FFED33FD4007985006D5F0F222C398FD58
:050323000FD5F0EA22F5
:00000001FF
