:03000000020003F8
:0C000300787FE4F6D8FD75811302004AF6
:0A017D00C0F9A4B0999282F88090B6
:10016C00021000140212001E020C0014020E001EDB
:0801870012018F12008F80FBB2
:01018F00224D
:10008F00AE0EAF0F7C007D0A1200ED8F09AE0EAFE2
:10009F000F7C007D0A1200ED8D0AAE0CAF0D7C00B7
:1000AF007D0A1200ED8F0BAE0CAF0D7C007D0A1296
:1000BF0000ED8D0C759001E509120142759002E576
:1000CF000A120142759004E50B120142759008E582
:0E00DF000C90017D93F5807F017E0002014CA4
:0A01420090017D93F5807F017E009F
:10014C00E4FDFCC3ED9FEC9E5015E4FBFA0BBB00E9
:0F015C00010AEB647C4A70F50DBD00010C80E4D4
:01016B002271
:10000F00020187E493A3F8E493A34003F68001F27F
:10001F0008DFF48029E493A3F85407240CC8C333F2
:10002F00C4540F4420C8834004F456800146F6DFC1
:10003F00E4800B010204081020408090016CE47EE4
:10004F00019360BCA3FF543F30E509541FFEE493B6
:10005F00A360010ECF54C025E060A840B8E493A37D
:10006F00FAE493A3F8E493A3C8C582C8CAC583CAA8
:10007F00F0A3C8C582C8CAC583CADFE9DEE780BE60
:01017C000082
:1000ED00BC000BBE0029EF8DF084FFADF022E4CCF7
:1000FD00F875F008EF2FFFEE33FEEC33FCEE9DECC0
:10010D00984005FCEE9DFE0FD5F0E9E4CEFD22ED05
:10011D00F8F5F0EE8420D21CFEADF075F008EF2F4F
:10012D00FFED33FD4007985006D5F0F222C398FD40
:05013D000FD5F0EA22DD
:00000001FF
