:0300000002018575
:0C018500787FE4F6D8FD7581210201CCE2
:0A03BC00C0F9A4B0999282F8809075
:10038D00021E000F0220000A0218000F021A000AB6
:10039D0002160001020E0001020C0000020800000E
:080003001203C612021180FB7A
:0703C600D2AFD2A90203AE81
:03000B0002031CD1
:10031C00C0E0C0F0C083C082C0D075D000C000C0A7
:10032C0001C002C003C004C005C006C007758C4CD8
:10033C00758A0012000E1200D612026FD007D0067A
:10034C00D005D004D003D002D001D000D0D0D082C0
:07035C00D083D0F0D0E032A5
:10021100AE1AAF1B7C007D0A1202C78F12AE1AAF55
:100221001B7C007D0A1202C78D13AE18AF197C002A
:100231007D0A1202C78F14AE18AF197C007D0A1215
:1002410002C78D15759001E512120363759002E5E1
:1002510013120363759004E514120363759008E5A6
:0E026100159003BC93F5807F017E0002036DB3
:10000E00E51745166061D3E5199405E5189400408F
:10001E001BE50E450F24FF92A1E50F450E70047FE0
:10002E000180027F007508008F09800FE50E450FD5
:10003E0024FFB392A1850E08850F09E50E450F2406
:10004E00FFB392A3E50F450E70047F0180027F007F
:10005E00750C008F0DE50E450F24FFB392A4E50E2F
:10006E00450F24FF92A622E50F450E70047F0180F6
:10007E00027F007508008F09E50E450F24FFB3922D
:10008E00A1E50E450F24FF92A3D3E51B9405E51AB7
:10009E009400401BE50E450F24FF92A4E50F450E7C
:1000AE0070047F0180027F00750C008F0D800FE5BC
:1000BE000E450F24FFB392A4850E0C850F0DE50E91
:0800CE00450F24FFB392A622A6
:10026F000511E51170020510C3940AE510940040C2
:10027F0046E4F510F511050BE50B7002050AD39452
:10028F000AE50A94004005E4F50AF50BE50D450C67
:10029F006007E50B1392A58009E50E450F24FFB308
:1002AF0092A5E50945086006E50B1392A222E50E1B
:0802BF00450F24FFB392A222B7
:1000D600051DE51D7002051CC39414E51C94005013
:1000E60003020184E4F51CF51DE51745166006AE0E
:1000F60018AF198004AE1AAF1BD3EF9400EE94002C
:10010600404BE51B151B7002151AE51915197002EF
:100116001518E51745167006AE18AF198004AE1A05
:10012600AF1BD3EF9400EE94005053E51B9519E5F1
:100136001A95184006751800751905D3E519951B0B
:10014600E518951A4038751A00751B0522E51745FE
:1001560016700E85201A85211B851E18851F19808D
:100166000C85201A85211B852018852119E5174540
:0F0176001670047F0180027F007516008F17221C
:0A0363009003BC93F5807F017E003B
:10036D00E4FDFCC3ED9FEC9E5015E4FBFA0BBB00C6
:0F037D00010AEB647C4A70F50DBD00010C80E4B1
:01038C00224E
:0E03AE00758901E4F58A758C4CC28DD28C22C3
:10019100020003E493A3F8E493A34003F68001F281
:1001A10008DFF48029E493A3F85407240CC8C3336F
:1001B100C4540F4420C8834004F456800146F6DF3E
:1001C100E4800B010204081020408090038DE47E3E
:1001D100019360BCA3FF543F30E509541FFEE49333
:1001E100A360010ECF54C025E060A840B8E493A3FA
:1001F100FAE493A3F8E493A3C8C582C8CAC583CA25
:10020100F0A3C8C582C8CAC583CADFE9DEE780BEDC
:0103AD00004F
:1002C700BC000BBE0029EF8DF084FFADF022E4CC1B
:1002D700F875F008EF2FFFEE33FEEC33FCEE9DECE4
:1002E700984005FCEE9DFE0FD5F0E9E4CEFD22ED2A
:1002F700F8F5F0EE8420D21CFEADF075F008EF2F74
:10030700FFED33FD4007985006D5F0F222C398FD64
:050317000FD5F0EA2201
:00000001FF
