:0300000002027584
:0C027500787FE4F6D8FD7581310202BCF0
:0A063B00C0F9A4B0999282F88090F3
:10059600022E000F0230000F02280007022A000A6E
:1005A600022400030222000302200003021E0003AD
:1005B600021C0000022600010212000102100000C7
:1005C600020C000002080000020A000002140000EB
:0B00160012061E12038B12018080F8FE
:0F061E00D2AFD288D2A8D28AD2AAD2A90206011C
:03000B0002055299
:10055200C0E0C0F0C083C082C0D075D000C000C06F
:1005620001C002C003C004C005C006C007758C4CA0
:10057200758A001200261204A5D007D006D005D035
:1005820004D003D002D001D000D0D0D082D083D00A
:04059200F0D0E03293
:10038B00AE2AAF2B7C007D0A1204FD8F18AE2AAF6C
:10039B002B7C007D0A1204FD8D19AE28AF297C0041
:1003AB007D0A1204FD8F1AAE28AF297C007D0A123C
:1003BB0004FD8D1B759001E5181205D7759002E5AC
:1003CB00191205D7759004E51A1205D7759008E533
:0E03DB001B90063B93F5807F017E000205E13A
:10018000E51C6003020274E51D14604B14607314D7
:10019000700302024124036003020274E512451356
:1001A00024FF92A1B392A3E513451270047F01804E
:1001B000027F00750C008F0DE512451324FFB392EA
:1001C000A4E512451324FF92A6E513451270047F9F
:1001D0000180687F008064E512451324FFB392A17B
:1001E00092A385120C85130D92A492A5E5124513D6
:1001F00024FF92A6E513451270047F0180027F0060
:100200008039E512451324FFB392A1E5124513246A
:10021000FF92A3E513451270047F0180027F0075F1
:100220000C008F0DE512451324FF92A4B392A6E5AE
:1002300013451270047F0180027F007510008F113A
:1002400022E512451324FFB392A1E512451324FFC2
:1002500092A3E513451270047F0180027F00750CA4
:10026000008F0DE512451324FFB392A492A68512C8
:050270001085131122AE
:1004A5000517E51770020516C3940AE51694004072
:1004B50046E4F516F517050FE50F7002050ED39402
:1004C5000AE50E94004005E4F50EF50FE51145101B
:1004D5006007E50F1392A58009E512451324FFB3C4
:1004E50092A5E50D450C6006E50F1392A222E512D3
:0804F500451324FFB392A2227B
:10002600052DE52D7002052CC39413E52C94005084
:100036000302017FE4F52CF52DE527452670030222
:1000460000DED3E5299400E5289400400EE50D4531
:100056000C7008F51CF51DF50CF50DD3E52994007B
:10006600E5289400501BE50D450C7015120301851B
:100076001E28851F29750C00750D01751C00751D40
:1000860001D3E5299400E52894005035E50D640177
:10009600450C702D852E28852F2985302A85312BF4
:1000A60085221E85231F852420852521F50CF50D27
:1000B600E527452670047F0180027F007526008FA4
:1000C60027D3E52B9400E52A9400400302016F85AF
:1000D600282A85292B02016FD3E52B9400E52A9463
:1000E60000400FE51145107009F51C751D02F5104D
:1000F600F511D3E52B9400E52A9400501BE5114534
:1001060010701512030185202A85212B75100075A4
:100116001101751C00751D03D3E52B9400E52A9487
:10012600005035E51164014510702D852E28852F68
:100136002985302A85312B85221E85231F8524207B
:10014600852521F510F511E527452670047F0180E8
:10015600027F007526008F27D3E5299400E52894B1
:10016600005006852A28852B29E52B152B700215AC
:0A0176002AE5291529700215282238
:10030100E52745266038AE0AAF0B7C007D03120459
:10031100FDE5092FFFE5083EFEEF251FF51FEE3530
:100321001EF51ED3E51F940AE51E940040067E00CB
:100331007F0A8004AE1EAF1F8E1E8F1F8036AE0A4D
:10034100AF0B7C007D031204FDE5092FFFE5083E9C
:10035100FEEF2521F521EE3520F520D3E521940A84
:10036100E520940040067E007F0A8004AE20AF2184
:100371008E208F21E50925E0FFE50833FE120645B1
:0A038100E4F508F509F50AF50B2272
:0A05D70090063B93F5807F017E0043
:1005E100E4FDFCC3ED9FEC9E5015E4FBFA0BBB0050
:0F05F100010AEB647C4A70F50DBD00010C80E43B
:0106000022D7
:10060100758921E4F58A758C4CC28DD28C75985010
:0D061100F587758BFD758DFDD28ED2AC2264
:090645008F99751400751501224E
:030003000203E90C
:1003E900C0E0C0D075D000C006C007E51145106057
:1003F90006E50D450C703EE5274526601DE52F24D1
:10040900FBFFE52E34FFFED3E5299FE5289E402515
:100419000509E509701F0508801BE53124FBFFE587
:100429003034FFFED3E52B9FE52A9E40080509E5F8
:0E0439000970020508D007D006D0D0D0E032FE
:030013000204479D
:10044700C0E0C0D075D000C006C007E511451060F8
:1004570006E50D450C703EE5274526601DE52F2472
:10046700FBFFE52E34FFFED3E5299FE5289E4025B7
:10047700050BE50B701F050A801BE53124FBFFE523
:100487003034FFFED3E52B9FE52A9E4008050BE598
:0E0497000B7002050AD007D006D0D0D0E0329C
:0300230002062DA5
:0E062D00309805C298859980309902C29932A2
:10028100020016E493A3F8E493A34003F68001F27D
:1002910008DFF48029E493A3F85407240CC8C3337E
:1002A100C4540F4420C8834004F456800146F6DF4D
:1002B100E4800B0102040810204080900596E47E42
:1002C100019360BCA3FF543F30E509541FFEE49342
:1002D100A360010ECF54C025E060A840B8E493A309
:1002E100FAE493A3F8E493A3C8C582C8CAC583CA34
:1002F100F0A3C8C582C8CAC583CADFE9DEE780BEEC
:0105D6000024
:1004FD00BC000BBE0029EF8DF084FFADF022E4CCE3
:10050D00F875F008EF2FFFEE33FEEC33FCEE9DECAB
:10051D00984005FCEE9DFE0FD5F0E9E4CEFD22EDF1
:10052D00F8F5F0EE8420D21CFEADF075F008EF2F3B
:10053D00FFED33FD4007985006D5F0F222C398FD2C
:05054D000FD5F0EA22C9
:00000001FF
