:0300000002027584
:0C027500787FE4F6D8FD7581310202BCF0
:0A05D000C0F9A4B0999282F880905F
:1004CE00022E000F0230000F02280007022A000A37
:1004DE00022400030222000302200003021E000376
:1004EE00021C000002260001021200010210000090
:1004FE00020C000002080000020A000002140000B4
:0B0016001205B312037F12018080F876
:0F05B300D2AFD288D2A8D28AD2AAD2A9020596F4
:03000B0002048A62
:10048A00C0E0C0F0C083C082C0D075D000C000C038
:10049A0001C002C003C004C005C006C007758C4C69
:1004AA00758A001200261203DDD007D006D005D0C7
:1004BA0004D003D002D001D000D0D0D082D083D0D3
:0404CA00F0D0E0325C
:10037F00AE2AAF2B7C007D0A1204358F18AE2AAF40
:10038F002B7C007D0A1204358D19AE28AF297C0015
:10039F007D0A1204358F1AAE28AF297C007D0A1210
:1003AF0004358D1B759001E51812056C759002E5EB
:1003BF001912056C759004E51A12056C759008E515
:0E03CF001B9005D093F5807F017E000205761D
:10018000E51C6003020274E51D14604B14607314D7
:10019000700302024124036003020274E512451356
:1001A00024FF92A1B392A3E513451270047F01804E
:1001B000027F00750C008F0DE512451324FFB392EA
:1001C000A4E512451324FF92A6E513451270047F9F
:1001D0000180687F008064E512451324FFB392A17B
:1001E00092A385120C85130D92A492A5E5124513D6
:1001F00024FF92A6E513451270047F0180027F0060
:100200008039E512451324FFB392A1E5124513246A
:10021000FF92A3E513451270047F0180027F0075F1
:100220000C008F0DE512451324FF92A4B392A6E5AE
:1002300013451270047F0180027F007510008F113A
:1002400022E512451324FFB392A1E512451324FFC2
:1002500092A3E513451270047F0180027F00750CA4
:10026000008F0DE512451324FFB392A492A68512C8
:050270001085131122AE
:1003DD000517E51770020516C3940AE5169400403B
:1003ED0046E4F516F517050FE50F7002050ED394CB
:1003FD000AE50E94004005E4F50EF50FE5114510E4
:10040D006007E50F1392A58009E512451324FFB38C
:10041D0092A5E50D450C6006E50F1392A222E5129B
:08042D00451324FFB392A22243
:10002600052DE52D7002052CC39413E52C94005084
:100036000302017FE4F52CF52DE527452670030222
:1000460000DED3E5299400E5289400400EE50D4531
:100056000C7008F51CF51DF50CF50DD3E52994007B
:10006600E5289400501BE50D450C7015120301851B
:100076001E28851F29750C00750D01751C00751D40
:1000860001D3E5299400E52894005035E50D640177
:10009600450C702D852E28852F2985302A85312BF4
:1000A60085221E85231F852420852521F50CF50D27
:1000B600E527452670047F0180027F007526008FA4
:1000C60027D3E52B9400E52A9400400302016F85AF
:1000D600282A85292B02016FD3E52B9400E52A9463
:1000E60000400FE51145107009F51C751D02F5104D
:1000F600F511D3E52B9400E52A9400501BE5114534
:1001060010701512030185202A85212B75100075A4
:100116001101751C00751D03D3E52B9400E52A9487
:10012600005035E51164014510702D852E28852F68
:100136002985302A85312B85221E85231F8524207B
:10014600852521F510F511E527452670047F0180E8
:10015600027F007526008F27D3E5299400E52894B1
:10016600005006852A28852B29E52B152B700215AC
:0A0176002AE5291529700215282238
:10030100E52745266038AE0AAF0B7C007D03120459
:1003110035E5092FFFE5083EFEEF251FF51FEE35F8
:100321001EF51ED3E51F940AE51E940040067E00CB
:100331007F0A8004AE1EAF1F8E1E8F1F8036AE0A4D
:10034100AF0B7C007D03120435E5092FFFE5083E64
:10035100FEEF2521F521EE3520F520D3E521940A84
:10036100E520940040067E007F0A8004AE20AF2184
:0E0371008E208F21E4F508F509F50AF50B2220
:0A056C009005D093F5807F017E001A
:10057600E4FDFCC3ED9FEC9E5015E4FBFA0BBB00BB
:0F058600010AEB647C4A70F50DBD00010C80E4A6
:010595002243
:10059600758921E4F58A758C4CC28DD28C7598507C
:0D05A600F587758BFD758DFDD28ED2AC22D0
:0905DA008F9975140075150122BA
:0300030002053EB5
:10053E00C0E0C0D075D000C006C007E51145106000
:10054E0006E50D450C700E0509E50970020508E477
:0E055E00FFFE1205DAD007D006D0D0D0E03272
:0300130002050FD4
:10050F00C0E0C0D075D000C006C007E5114510602F
:10051F0006E50D450C700F050BE50B7002050A7F04
:0F052F00017E001205DAD007D006D0D0D0E0321E
:030023000205C211
:0E05C200309805C298859980309902C299320E
:10028100020016E493A3F8E493A34003F68001F27D
:1002910008DFF48029E493A3F85407240CC8C3337E
:1002A100C4540F4420C8834004F456800146F6DF4D
:1002B100E4800B01020408102040809004CEE47E0B
:1002C100019360BCA3FF543F30E509541FFEE49342
:1002D100A360010ECF54C025E060A840B8E493A309
:1002E100FAE493A3F8E493A3C8C582C8CAC583CA34
:1002F100F0A3C8C582C8CAC583CADFE9DEE780BEEC
:01050E0000EC
:10043500BC000BBE0029EF8DF084FFADF022E4CCAB
:10044500F875F008EF2FFFEE33FEEC33FCEE9DEC74
:10045500984005FCEE9DFE0FD5F0E9E4CEFD22EDBA
:10046500F8F5F0EE8420D21CFEADF075F008EF2F04
:10047500FFED33FD4007985006D5F0F222C398FDF5
:050485000FD5F0EA2292
:00000001FF
