:0300000002000EED
:0C000E00787FE4F6D8FD758117020055DC
:1001E800C0F9A4B0999282F880903F065B4F666D83
:0501F8007D077F6F4050
:1001D300021400190216001E020E00190210001E5E
:0401E300020C00000A
:0800030012020B12009A80FBAF
:07020B00D2AFD2A90201FDF0
:03000B000200F8F8
:1000F800C0E0C0D0758C4C758A000513E5137002FA
:100108000512C39414E5129400403C75120075134F
:1001180000D3E5119400E5109400400AE51115118B
:10012800700A15108006851410851511D3E50F94F3
:1001380000E50E9400400AE50F150F700A150E80B1
:0C0148000685140E85150FD0D0D0E032D3
:10009A00AE10AF117C007D0A1201548F08AE10AF6A
:1000AA00117C007D0A1201548D09AE0EAF0F7C003F
:1000BA007D0A1201548F0AAE0EAF0F7C007D0A1220
:1000CA0001548D0B759001E5081201A9759002E59E
:1000DA00091201A9759004E50A1201A9759008E5AB
:0E00EA000B9001E893F5807F017E000201B3C8
:0A01A9009001E893F5807F017E00CD
:1001B300E4FDFCC3ED9FEC9E5015E4FBFA0BBB0082
:0F01C300010AEB647C4A70F50DBD00010C80E46D
:0101D200220A
:0E01FD00758901E4F58A758C4CC28DD28C2276
:10001A00020003E493A3F8E493A34003F68001F2F9
:10002A0008DFF48029E493A3F85407240CC8C333E7
:10003A00C4540F4420C8834004F456800146F6DFB6
:10004A00E4800B01020408102040809001D3E47E72
:10005A00019360BCA3FF543F30E509541FFEE493AB
:10006A00A360010ECF54C025E060A840B8E493A372
:10007A00FAE493A3F8E493A3C8C582C8CAC583CA9D
:10008A00F0A3C8C582C8CAC583CADFE9DEE780BE55
:0101E7000017
:10015400BC000BBE0029EF8DF084FFADF022E4CC8F
:10016400F875F008EF2FFFEE33FEEC33FCEE9DEC58
:10017400984005FCEE9DFE0FD5F0E9E4CEFD22ED9E
:10018400F8F5F0EE8420D21CFEADF075F008EF2FE8
:10019400FFED33FD4007985006D5F0F222C398FDD9
:0501A4000FD5F0EA2276
:00000001FF
