:030000000200D625
:0C00D600787FE4F6D8FD75812102011D41
:0A036E00C0F9A4B0999282F88090C3
:10033F00021E000F0220000A0218000F021A000A04
:10034F0002160000020E0001020C0000020800005D
:080003001203781201C380FB17
:07037800D2AFD2A90203601D
:03000B000202CE20
:1002CE00C0E0C0F0C083C082C0D075D000C000C0F6
:1002DE0001C002C003C004C005C006C007758C4C27
:1002EE00758A0012000E120162120221D007D0068A
:1002FE00D005D004D003D002D001D000D0D0D0820F
:07030E00D083D0F0D0E032F3
:1001C300AE1AAF1B7C007D0A1202798F12AE1AAFF2
:1001D3001B7C007D0A1202798D13AE18AF197C00C7
:1001E3007D0A1202798F14AE18AF197C007D0A12B2
:1001F30002798D15759001E512120315759002E5CC
:1002030013120315759004E514120315759008E590
:0E0213001590036E93F5807F017E0002031F9D
:10000E00E51745166061D3E5199405E5189400408F
:10001E001BE50E450F24FF92A1E50F450E70047FE0
:10002E000180027F007508008F09800FE50E450FD5
:10003E0024FFB392A1850E08850F09E50E450F2406
:10004E00FFB392A3E50F450E70047F0180027F007F
:10005E00750C008F0DE50E450F24FFB392A4E50E2F
:10006E00450F24FF92A622E50F450E70047F0180F6
:10007E00027F007508008F09E50E450F24FFB3922D
:10008E00A1E50E450F24FF92A3D3E51B9405E51AB7
:10009E009400401BE50E450F24FF92A4E50F450E7C
:1000AE0070047F0180027F00750C008F0D800FE5BC
:1000BE000E450F24FFB392A4850E0C850F0DE50E91
:0800CE00450F24FFB392A622A6
:100221000511E51170020510C3940AE51094004010
:1002310046E4F510F511050BE50B7002050AD394A0
:100241000AE50A94004005E4F50AF50BE50D450CB5
:100251006007E50B1392A58009E50E450F24FFB356
:1002610092A5E50945086006E50B1392A222E50E69
:08027100450F24FFB392A22205
:10016200051DE51D7002051CC39414E51C94004096
:100172004FE4F51CF51DD3E5199400E518940040F1
:1001820022E51B151B7002151AE5191519700215C7
:1001920018D3E51B9400E51A9400502485181A859B
:1001A200191B2285201A85211B851E18851F19E51A
:1001B20017451670047F0180027F007516008F17A5
:0101C200221A
:0A03150090036E93F5807F017E00D7
:10031F00E4FDFCC3ED9FEC9E5015E4FBFA0BBB0014
:0F032F00010AEB647C4A70F50DBD00010C80E4FF
:01033E00229C
:0E036000758901E4F58A758C4CC28DD28C2211
:1000E200020003E493A3F8E493A34003F68001F231
:1000F20008DFF48029E493A3F85407240CC8C3331F
:10010200C4540F4420C8834004F456800146F6DFED
:10011200E4800B010204081020408090033FE47E3B
:10012200019360BCA3FF543F30E509541FFEE493E2
:10013200A360010ECF54C025E060A840B8E493A3A9
:10014200FAE493A3F8E493A3C8C582C8CAC583CAD4
:10015200F0A3C8C582C8CAC583CADFE9DEE780BE8C
:01035F00009D
:10027900BC000BBE0029EF8DF084FFADF022E4CC69
:10028900F875F008EF2FFFEE33FEEC33FCEE9DEC32
:10029900984005FCEE9DFE0FD5F0E9E4CEFD22ED78
:1002A900F8F5F0EE8420D21CFEADF075F008EF2FC2
:1002B900FFED33FD4007985006D5F0F222C398FDB3
:0502C9000FD5F0EA2250
:00000001FF
