:0300000002000EED
:0C000E00787FE4F6D8FD758119020055DA
:0A027800C0F9A4B0999282F88090BA
:100251000216000A0218000A0210000A0212000A1D
:08026100020E0000020800017A
:0800030012028212009A80FB38
:07028200D2AFD2A902026A0B
:03000B000201E30C
:1001E300C0E0C0F0C083C082C0D075D000C000C0E2
:1001F30001C002C003C004C005C006C007758C4C13
:10020300758A0012019D12014DD007D006D005D08A
:1002130004D003D002D001D000D0D0D082D083D07C
:04022300F0D0E03205
:10009A00AE12AF137C007D0A1200F88F0AAE12AFBF
:1000AA00137C007D0A1200F88D0BAE10AF117C0094
:1000BA007D0A1200F88F0CAE10AF117C007D0A1277
:1000CA0000F88D0D759001E50A120227759002E578
:1000DA000B120227759004E50C120227759008E5A9
:0E00EA000D90027893F5807F017E00020231B6
:10019D00E4F5A0E50F450E601BE508450924FF9227
:1001AD00A1B392A392A292A4E508450924FF92A6B9
:1001BD00B392A522E508450924FFB392A1E50845B0
:1001CD000924FF92A3B392A2E508450924FF92A446
:0601DD00B392A692A522D8
:10014D000515E51570020514C39414E514940040CB
:10015D003EE4F514F515D3E5139400E51294004033
:10016D0011E513151370021512E5111511702015F7
:10017D001022851812851913851610851711E50F94
:10018D00450E70047F0180027F00750E008F0F22D7
:0A02270090027893F5807F017E00BD
:10023100E4FDFCC3ED9FEC9E5015E4FBFA0BBB0003
:0F024100010AEB647C4A70F50DBD00010C80E4EE
:01025000228B
:0E026A00758901E4F58A758C4CC28DD28C2208
:10001A00020003E493A3F8E493A34003F68001F2F9
:10002A0008DFF48029E493A3F85407240CC8C333E7
:10003A00C4540F4420C8834004F456800146F6DFB6
:10004A00E4800B0102040810204080900251E47EF3
:10005A00019360BCA3FF543F30E509541FFEE493AB
:10006A00A360010ECF54C025E060A840B8E493A372
:10007A00FAE493A3F8E493A3C8C582C8CAC583CA9D
:10008A00F0A3C8C582C8CAC583CADFE9DEE780BE55
:010269000094
:1000F800BC000BBE0029EF8DF084FFADF022E4CCEC
:10010800F875F008EF2FFFEE33FEEC33FCEE9DECB4
:10011800984005FCEE9DFE0FD5F0E9E4CEFD22EDFA
:10012800F8F5F0EE8420D21CFEADF075F008EF2F44
:10013800FFED33FD4007985006D5F0F222C398FD35
:050148000FD5F0EA22D2
:00000001FF
