:0300000002000EED
:0C000E00787FE4F6D8FD758115020055DE
:1001D300C0F9A4B0999282F880903F065B4F666D98
:0501E3007D077F6F4065
:1001E800021200190214001E020C0014020E001E56
:0800030012020712009A80FBB3
:07020700D2AFD2A90201F9F8
:03000B000200F8F8
:1000F800C0E0C0D0758C4C758A000511E5117002FE
:100108000510C39414E5109400403C751000751157
:1001180000D3E50D9400E50C9400400AE50D150D9B
:10012800700A150C800685120C85130DD3E50D9405
:1001380000E50C9400400AE50D150D700A150C80B9
:0C0148000685120C85130DD0D0D0E032DB
:10009A00AE0EAF0F7C007D0A1201548F09AE0EAF6F
:1000AA000F7C007D0A1201548D0AAE0CAF0D7C0044
:1000BA007D0A1201548F0BAE0CAF0D7C007D0A1223
:1000CA0001548D0C759001E5091201A9759002E59C
:1000DA000A1201A9759004E50B1201A9759008E5A9
:0E00EA000C9001D393F5807F017E000201B3DC
:0A01A9009001D393F5807F017E00E2
:1001B300E4FDFCC3ED9FEC9E5015E4FBFA0BBB0082
:0F01C300010AEB647C4A70F50DBD00010C80E46D
:0101D200220A
:0E01F900758901E4F58A758C4CC28DD28C227A
:10001A00020003E493A3F8E493A34003F68001F2F9
:10002A0008DFF48029E493A3F85407240CC8C333E7
:10003A00C4540F4420C8834004F456800146F6DFB6
:10004A00E4800B01020408102040809001E8E47E5D
:10005A00019360BCA3FF543F30E509541FFEE493AB
:10006A00A360010ECF54C025E060A840B8E493A372
:10007A00FAE493A3F8E493A3C8C582C8CAC583CA9D
:10008A00F0A3C8C582C8CAC583CADFE9DEE780BE55
:0101F8000006
:10015400BC000BBE0029EF8DF084FFADF022E4CC8F
:10016400F875F008EF2FFFEE33FEEC33FCEE9DEC58
:10017400984005FCEE9DFE0FD5F0E9E4CEFD22ED9E
:10018400F8F5F0EE8420D21CFEADF075F008EF2FE8
:10019400FFED33FD4007985006D5F0F222C398FDD9
:0501A4000FD5F0EA2276
:00000001FF
