:030000000206E114
:0C06E100787FE4F6D8FD75813802072808
:0B08DC003F065B4F666D7D077F6F00DD
:1008970001381401371E042641A00000042241F04C
:0A08A7000000C103C102C101C1003D
:10083C00758911758D3C758BB0758C3C758AB0D2F1
:10084C00AFD2A9D2ABD28CC28ED2A8D2AA1207D167
:10085C0075A0C3E5382405F53712052112076D8004
:01086C00F893
:1005210020B44712076D20B441E4F521D28CF53097
:10053100D28EAF25AE24AD23AC2212026D8F37AF20
:1005410029AE28AD27AC2612026D8F38E420030EA8
:10055100F5A0D2A1D2A6E5382405F537800CF5A087
:10056100D2A4D2A3E5372405F53820B14012076D96
:1005710020B13AE4F530C3049531F531B40109C233
:100581008CE4F5A0D2A3D2A6E531701BD28CF5A0E4
:10059100D2A1D2A6AF29AE28AD27AC2612026D8F0B
:1005A10038E5382405F53712076D30B1FA20951872
:1005B10012076D209512C28CE4F5A0753001F53853
:1005C100F53712076D3095FA20B75012076D20B735
:1005D1004A0521E521C394634003E4F521E521B4F3
:1005E1000124C28CD28EAF29AE28AD27AC261202CF
:1005F1006D8F38AF25AE24AD23AC2212026D8F373B
:1006010012076D30B7FAE521B40210C28CD28E8583
:100611002F38852E3712076D30B7FA20B55F1207D4
:100621006D20B55930A10E052FE52FC39463400D00
:10063100E4F52F800830A305C2B0E4F533E521705D
:100641000612076D30B5FAE521B40120AF29AE28B5
:10065100AD27AC2612026D8F38AF25AE24AD23AC89
:100661002212026D8F3712076D30B5FAE521B402FF
:100671000C852E37852F3812076D30B5FA20B65FFD
:1006810012076D20B65930A40E052EE52EC39463D2
:10069100400DE4F52E800830A605C2B0E4F533E53F
:1006A10021700612076D30B6FAE521B40120AF259D
:1006B100AE24AD23AC2212026D8F37AF29AE28AD27
:1006C10027AC2612026D8F3812076D30B6FAE5217C
:1006D100B4020C852E37852F3812076D30B6FA22F9
:10076D00E53775F00A84F52BE53775F00A8485F0C9
:10077D002CE53875F00A84F52DE53875F00A848579
:10078D00F02A7590FFE4F5807590FEE52B12086D4B
:10079D007590FFE4F5807590FDE52C12086D759050
:1007AD00FFE4F5807590FBE52D12086D7590FFE463
:1007BD00F5807590F7E52A9008DC93F5807F017E32
:0407CD0000020877A7
:03000B0002030EDF
:10030E00C0E0C0F0C083C082C0D075D008758C3CF0
:10031E00758AB0D28C0532E532640A7022E537D385
:10032E009405500A200207300104C2A1C2A2E5388A
:10033E00D39405500A300207300104C2A4C2A5E5C9
:10034E003264146003020516F53215381537E53799
:10035E00D39405500A200207300104C2A1D2A2E5AF
:10036E0038D39405500A300207300104C2A4D2A536
:10037E00E538700AE537B40505753805D201E5375D
:10038E00700AE538B40505753705D201300203024F
:10039E000458E5376003020458F5A0D2A4D2A3B2E4
:1003AE0002C201AF2EFEFC7D0A1202EEAC0EAD0FA4
:1003BE00E4120234AB25AA24A923A822120119E4BF
:1003CE00FBFA79A078401201B66002501CAF25AE40
:1003DE0024AD23AC22E4FBFA79A078401200258FDD
:1003EE00258E248D238C22803AAF25AE24AD23ACEE
:1003FE0022E4FBFA79A078C01200258F258E248D79
:10040E00238C22E4FFFE7D707C41AB25AA24A92318
:10041E00A8221201B6500C752500752400752370A4
:10042E00752241752E00AF25AE24AD23AC221202EB
:10043E006D8F37E4FFFE7DA07C40AB25AA24A92357
:10044E00A82212002512026D8F3820020302051613
:10045E00E5386003020516F5A0D2A1D2A6B202C2FB
:10046E0001AF2FFEFC7D0A1202EEAC0EAD0FE412B0
:10047E000234AB29AA28A927A826120119E4FBFAEF
:10048E0079A078401201B66002501CAF29AE28AD9B
:10049E0027AC26E4FBFA79A078401200258F298E2E
:1004AE00288D278C26803AAF29AE28AD27AC26E4BE
:1004BE00FBFA79A078C01200258F298E288D278C03
:1004CE0026E4FFFE7D707C41AB29AA28A927A82629
:1004DE001201B6500C752900752800752770752607
:1004EE0041752F00AF29AE28AD27AC2612026D8FB5
:1004FE0038E4FFFE7DA07C40AB29AA28A927A826B8
:10050E0012002512026D8F37D0D0D082D083D0F05A
:03051E00D0E032F8
:03001B00020808D0
:10080800C0E0C0D0758D3C758BB00533E533B40AB4
:1008180009E530B40104C2A5C2A2E533B414100539
:1008280034753300D2B0E530B40104D2A5D2A2D0D9
:04083800D0D0E0320A
:030003000208B23E
:1008B200C28CD28E75300075A000D2A1D2A6753836
:0508C200007537003253
:030013000208C719
:1008C700C28CD28E75300075A000D2A4D2A3753722
:0508D70000753800323D
:1007D100E4F535F5367580407590FE120873759015
:1007E100FD1208737590FB1208737590F712087368
:1007F1007590FF0536E53670020535C39432E5354F
:070801006480948040CF22C7
:0A086D009008DC93F5807F017E0007
:10087700E4FDFCC3ED9FEC9E5015E4FBFA0BBB00B7
:0F088700010AEB647C4A70F50DBD00010C80E4A2
:01089600223F
:10001E000202D9E86480F8E933E83360110460F035
:10002E00ED33EC337009E8FCE9FDEAFEEBFF220448
:10003E0060DED3EB9FEA9EE99DE8C2E78CF0C2F743
:10004E0095F0400CE8CCF8E9CDF9EACEFAEBCFFB0F
:10005E001202A485D0F05804700320D5B3E80470C2
:10006E00075002B2D50202E392D5EC0460F7E4CC5D
:10007E00C0E0C398F8603B94186008400DD0E0FBD8
:10008E000202BBE4FBFAC9FC8028E830E406E4C9AE
:10009E00FBE4CAFCE830E305E4C9CACBFCE854072C
:1000AE006010F8C3E913F9EA13FAEB13FBEC13FC37
:1000BE00D8F130F52FC3E49CFCEF9BFFEE9AFEEDDA
:1000CE0099FDD0E0FBEF4E4D4C701222DB03020285
:1000DE00E0EC2CFCEF33FFEE33FEED33FDED30E7BD
:1000EE00EB0202BBEF2BFFEE3AFEED39FDD0E0FB4B
:1000FE0050130BBB00030202E3ED13FDEE13FEEFF4
:08010E0013FFEC13FC0202BB1D
:100116000202E3EC5D046005E8590470030202D9AB
:100126001202A4580460F6EC4860F2EC7004FDFE7E
:10013600FF22C860DB2481C85009C39860025006BC
:100146000202E09850CAF582E9294B4A7005AB8253
:100156000202CF75F0007C1A7880C3EF9BEE9AED11
:1001660099400DC3EF9BFFEE9AFEED99FDE842F034
:10017600DC23ACF0D0E0FFD0E0FED0E0FDAB822087
:10018600E7101BEB60BAEC2CFCEF33FFEE33FEED11
:1001960033FD0202BBE803F830E705C0F075F00056
:1001A600EF2FFFEE33FEED33FD40B830E7C280AAF5
:1001B60074F8CC6480CCC86480C8F58204604FC3F0
:1001C600EB9FF5F0EA9E42F0E99D42F0E89C45F08F
:1001D600603C501DE5825FFFE582D313CB5BCBF419
:1001E6002B5582FB50280ABA002409B90020088042
:1001F6001DE5825BFBE582D313CF5FCFF4C3132FDC
:100206005582FF50090EBE00050DBD00010CC3EB63
:100216009FF5F0EA9E42F0E99D42F0E89C45F060C9
:0902260007CC4820E701B3EC22EB
:10022F0075F020800E75F010800575F0087D007E4A
:10023F00007F003392D530D503120300EC3340100A
:10024F00EF33FFEE33FEED33FDEC33FCD5F0ED2253
:0E025F00E5F0247EA2D513CC92E7CDCEFF228F
:10026D00EDD2E7CD33EC3392D524814006E4FFFE89
:10027D00FDFC22FCE4CFCECDCC24E0501174FF80E8
:10028D00EDC3CC13CCCD13CDCE13CECF13CF047085
:07029D00F030D5DE02030082
:1002A400E9D2E7C933E833F892D5EDD2E7CD33ECA0
:0702B40033FC5002B2D52219
:1002BB00EC30E7100FBF000C0EBE00080DBD0004A4
:1002CB000BEB6014A2D5EB13FCED92E7FD2274FF50
:1002DB00FCFDFEFF22E480F8A2D574FF13FC7D80A9
:0302EB00E480EFBD
:1006ED0002083CE493A3F8E493A34003F68001F2DF
:1006FD0008DFF48029E493A3F85407240CC8C3330E
:10070D00C4540F4420C8834004F456800146F6DFDC
:10071D00E4800B0102040810204080900897E47ECD
:10072D00019360BCA3FF543F30E509541FFEE493D1
:10073D00A360010ECF54C025E060A840B8E493A398
:10074D00FAE493A3F8E493A3C8C582C8CAC583CAC3
:10075D00F0A3C8C582C8CAC583CADFE9DEE780BE7B
:0108B1000046
:1002EE00EF8DF0A4A8F0CF8CF0A428CE8DF0A42E24
:0202FE00FE22DE
:0E030000C3E49FFFE49EFEE49DFDE49CFC220E
:00000001FF
